{
  "_format": "hh-sol-artifact-1",
  "contractName": "MaxiNFT",
  "sourceName": "contracts/MaxiNFT.sol",
  "abi": [
    {
      "inputs": [
        {
          "internalType": "address",
          "name": "_coinAddress",
          "type": "address"
        }
      ],
      "stateMutability": "nonpayable",
      "type": "constructor"
    },
    {
      "anonymous": false,
      "inputs": [
        {
          "indexed": true,
          "internalType": "address",
          "name": "owner",
          "type": "address"
        },
        {
          "indexed": true,
          "internalType": "address",
          "name": "approved",
          "type": "address"
        },
        {
          "indexed": true,
          "internalType": "uint256",
          "name": "tokenId",
          "type": "uint256"
        }
      ],
      "name": "Approval",
      "type": "event"
    },
    {
      "anonymous": false,
      "inputs": [
        {
          "indexed": true,
          "internalType": "address",
          "name": "owner",
          "type": "address"
        },
        {
          "indexed": true,
          "internalType": "address",
          "name": "operator",
          "type": "address"
        },
        {
          "indexed": false,
          "internalType": "bool",
          "name": "approved",
          "type": "bool"
        }
      ],
      "name": "ApprovalForAll",
      "type": "event"
    },
    {
      "anonymous": false,
      "inputs": [
        {
          "indexed": true,
          "internalType": "address",
          "name": "from",
          "type": "address"
        },
        {
          "indexed": true,
          "internalType": "address",
          "name": "to",
          "type": "address"
        },
        {
          "indexed": true,
          "internalType": "uint256",
          "name": "tokenId",
          "type": "uint256"
        }
      ],
      "name": "Transfer",
      "type": "event"
    },
    {
      "inputs": [
        {
          "internalType": "address",
          "name": "to",
          "type": "address"
        },
        {
          "internalType": "uint256",
          "name": "tokenId",
          "type": "uint256"
        }
      ],
      "name": "approve",
      "outputs": [],
      "stateMutability": "nonpayable",
      "type": "function"
    },
    {
      "inputs": [
        {
          "internalType": "address",
          "name": "owner",
          "type": "address"
        }
      ],
      "name": "balanceOf",
      "outputs": [
        {
          "internalType": "uint256",
          "name": "",
          "type": "uint256"
        }
      ],
      "stateMutability": "view",
      "type": "function"
    },
    {
      "inputs": [],
      "name": "coinAddress",
      "outputs": [
        {
          "internalType": "address",
          "name": "",
          "type": "address"
        }
      ],
      "stateMutability": "view",
      "type": "function"
    },
    {
      "inputs": [
        {
          "internalType": "uint256",
          "name": "tokenId",
          "type": "uint256"
        }
      ],
      "name": "getApproved",
      "outputs": [
        {
          "internalType": "address",
          "name": "",
          "type": "address"
        }
      ],
      "stateMutability": "view",
      "type": "function"
    },
    {
      "inputs": [
        {
          "internalType": "uint256",
          "name": "",
          "type": "uint256"
        }
      ],
      "name": "imageURLs",
      "outputs": [
        {
          "internalType": "string",
          "name": "",
          "type": "string"
        }
      ],
      "stateMutability": "view",
      "type": "function"
    },
    {
      "inputs": [
        {
          "internalType": "address",
          "name": "owner",
          "type": "address"
        },
        {
          "internalType": "address",
          "name": "operator",
          "type": "address"
        }
      ],
      "name": "isApprovedForAll",
      "outputs": [
        {
          "internalType": "bool",
          "name": "",
          "type": "bool"
        }
      ],
      "stateMutability": "view",
      "type": "function"
    },
    {
      "inputs": [],
      "name": "mintItem",
      "outputs": [
        {
          "internalType": "uint256",
          "name": "",
          "type": "uint256"
        }
      ],
      "stateMutability": "nonpayable",
      "type": "function"
    },
    {
      "inputs": [],
      "name": "name",
      "outputs": [
        {
          "internalType": "string",
          "name": "",
          "type": "string"
        }
      ],
      "stateMutability": "view",
      "type": "function"
    },
    {
      "inputs": [
        {
          "internalType": "uint256",
          "name": "tokenId",
          "type": "uint256"
        }
      ],
      "name": "ownerOf",
      "outputs": [
        {
          "internalType": "address",
          "name": "",
          "type": "address"
        }
      ],
      "stateMutability": "view",
      "type": "function"
    },
    {
      "inputs": [
        {
          "internalType": "address",
          "name": "from",
          "type": "address"
        },
        {
          "internalType": "address",
          "name": "to",
          "type": "address"
        },
        {
          "internalType": "uint256",
          "name": "tokenId",
          "type": "uint256"
        }
      ],
      "name": "safeTransferFrom",
      "outputs": [],
      "stateMutability": "nonpayable",
      "type": "function"
    },
    {
      "inputs": [
        {
          "internalType": "address",
          "name": "from",
          "type": "address"
        },
        {
          "internalType": "address",
          "name": "to",
          "type": "address"
        },
        {
          "internalType": "uint256",
          "name": "tokenId",
          "type": "uint256"
        },
        {
          "internalType": "bytes",
          "name": "data",
          "type": "bytes"
        }
      ],
      "name": "safeTransferFrom",
      "outputs": [],
      "stateMutability": "nonpayable",
      "type": "function"
    },
    {
      "inputs": [
        {
          "internalType": "address",
          "name": "operator",
          "type": "address"
        },
        {
          "internalType": "bool",
          "name": "approved",
          "type": "bool"
        }
      ],
      "name": "setApprovalForAll",
      "outputs": [],
      "stateMutability": "nonpayable",
      "type": "function"
    },
    {
      "inputs": [
        {
          "internalType": "bytes4",
          "name": "interfaceId",
          "type": "bytes4"
        }
      ],
      "name": "supportsInterface",
      "outputs": [
        {
          "internalType": "bool",
          "name": "",
          "type": "bool"
        }
      ],
      "stateMutability": "view",
      "type": "function"
    },
    {
      "inputs": [],
      "name": "symbol",
      "outputs": [
        {
          "internalType": "string",
          "name": "",
          "type": "string"
        }
      ],
      "stateMutability": "view",
      "type": "function"
    },
    {
      "inputs": [
        {
          "internalType": "uint256",
          "name": "tokenId",
          "type": "uint256"
        }
      ],
      "name": "tokenURI",
      "outputs": [
        {
          "internalType": "string",
          "name": "",
          "type": "string"
        }
      ],
      "stateMutability": "view",
      "type": "function"
    },
    {
      "inputs": [
        {
          "internalType": "address",
          "name": "from",
          "type": "address"
        },
        {
          "internalType": "address",
          "name": "to",
          "type": "address"
        },
        {
          "internalType": "uint256",
          "name": "tokenId",
          "type": "uint256"
        }
      ],
      "name": "transferFrom",
      "outputs": [],
      "stateMutability": "nonpayable",
      "type": "function"
    }
  ],
  "bytecode": "0x61020060405260436101808181526080918291906200207b6101a039815260200160405180608001604052806043815260200162001ff56043913981526020016040518060800160405280604381526020016200210160439139815260200160405180608001604052806043815260200162001fb2604391398152602001604051806080016040528060438152602001620020be60439139815260200160405180608001604052806043815260200162002144604391398152602001604051806080016040528060438152602001620021876043913981526020016040518060800160405280604381526020016200203860439139905262000106906009906008620001c3565b503480156200011457600080fd5b50604051620021ca380380620021ca83398101604081905262000137916200029a565b6040518060400160405280600781526020016613585e1a53919560ca1b81525060405180604001604052806005815260200164135613919560da1b815250816000908162000186919062000371565b50600162000195828262000371565b5050600160075550600a80546001600160a01b0319166001600160a01b03929092169190911790556200043d565b8280548282559060005260206000209081019282156200020e579160200282015b828111156200020e5782518290620001fd908262000371565b5091602001919060010190620001e4565b506200021c92915062000220565b5090565b808211156200021c57600062000237828262000241565b5060010162000220565b5080546200024f90620002e2565b6000825580601f1062000260575050565b601f01602090049060005260206000209081019062000280919062000283565b50565b5b808211156200021c576000815560010162000284565b600060208284031215620002ad57600080fd5b81516001600160a01b0381168114620002c557600080fd5b9392505050565b634e487b7160e01b600052604160045260246000fd5b600181811c90821680620002f757607f821691505b6020821081036200031857634e487b7160e01b600052602260045260246000fd5b50919050565b601f8211156200036c57600081815260208120601f850160051c81016020861015620003475750805b601f850160051c820191505b81811015620003685782815560010162000353565b5050505b505050565b81516001600160401b038111156200038d576200038d620002cc565b620003a5816200039e8454620002e2565b846200031e565b602080601f831160018114620003dd5760008415620003c45750858301515b600019600386901b1c1916600185901b17855562000368565b600085815260208120601f198616915b828110156200040e57888601518255948401946001909101908401620003ed565b50858210156200042d5787850151600019600388901b60f8161c191681555b5050505050600190811b01905550565b611b65806200044d6000396000f3fe608060405234801561001057600080fd5b50600436106101005760003560e01c806395d89b4111610097578063d2d2d75c11610066578063d2d2d75c1461021d578063e985e9c514610230578063eb93406b1461026c578063fdc61dd11461027457600080fd5b806395d89b41146101dc578063a22cb465146101e4578063b88d4fde146101f7578063c87b56dd1461020a57600080fd5b806323b872dd116100d357806323b872dd1461018257806342842e0e146101955780636352211e146101a857806370a08231146101bb57600080fd5b806301ffc9a71461010557806306fdde031461012d578063081812fc14610142578063095ea7b31461016d575b600080fd5b6101186101133660046113c7565b610287565b60405190151581526020015b60405180910390f35b6101356102d9565b604051610124919061143c565b61015561015036600461144f565b61036b565b6040516001600160a01b039091168152602001610124565b61018061017b366004611484565b610392565b005b6101806101903660046114ae565b6104ac565b6101806101a33660046114ae565b6104dd565b6101556101b636600461144f565b6104f8565b6101ce6101c93660046114ea565b610558565b604051908152602001610124565b6101356105de565b6101806101f2366004611505565b6105ed565b610180610205366004611557565b6105fc565b61013561021836600461144f565b610634565b61013561022b36600461144f565b610744565b61011861023e366004611633565b6001600160a01b03918216600090815260056020908152604080832093909416825291909152205460ff1690565b6101ce6107f0565b600a54610155906001600160a01b031681565b60006001600160e01b031982166380ac58cd60e01b14806102b857506001600160e01b03198216635b5e139f60e01b145b806102d357506301ffc9a760e01b6001600160e01b03198316145b92915050565b6060600080546102e890611666565b80601f016020809104026020016040519081016040528092919081815260200182805461031490611666565b80156103615780601f1061033657610100808354040283529160200191610361565b820191906000526020600020905b81548152906001019060200180831161034457829003601f168201915b5050505050905090565b60006103768261099b565b506000908152600460205260409020546001600160a01b031690565b600061039d826104f8565b9050806001600160a01b0316836001600160a01b03160361040f5760405162461bcd60e51b815260206004820152602160248201527f4552433732313a20617070726f76616c20746f2063757272656e74206f776e656044820152603960f91b60648201526084015b60405180910390fd5b336001600160a01b038216148061042b575061042b813361023e565b61049d5760405162461bcd60e51b815260206004820152603e60248201527f4552433732313a20617070726f76652063616c6c6572206973206e6f7420746f60448201527f6b656e206f776e6572206e6f7220617070726f76656420666f7220616c6c00006064820152608401610406565b6104a783836109fd565b505050565b6104b63382610a6b565b6104d25760405162461bcd60e51b8152600401610406906116a0565b6104a7838383610ae9565b6104a7838383604051806020016040528060008152506105fc565b6000818152600260205260408120546001600160a01b0316806102d35760405162461bcd60e51b8152602060048201526018602482015277115490cdcc8c4e881a5b9d985b1a59081d1bdad95b88125160421b6044820152606401610406565b60006001600160a01b0382166105c25760405162461bcd60e51b815260206004820152602960248201527f4552433732313a2061646472657373207a65726f206973206e6f7420612076616044820152683634b21037bbb732b960b91b6064820152608401610406565b506001600160a01b031660009081526003602052604090205490565b6060600180546102e890611666565b6105f8338383610c85565b5050565b6106063383610a6b565b6106225760405162461bcd60e51b8152600401610406906116a0565b61062e84848484610d53565b50505050565b606061063f8261099b565b6000828152600660205260408120805461065890611666565b80601f016020809104026020016040519081016040528092919081815260200182805461068490611666565b80156106d15780601f106106a6576101008083540402835291602001916106d1565b820191906000526020600020905b8154815290600101906020018083116106b457829003601f168201915b5050505050905060006106ef60408051602081019091526000815290565b90508051600003610701575092915050565b81511561073357808260405160200161071b9291906116ee565b60405160208183030381529060405292505050919050565b61073c84610d86565b949350505050565b6009818154811061075457600080fd5b90600052602060002001600091509050805461076f90611666565b80601f016020809104026020016040519081016040528092919081815260200182805461079b90611666565b80156107e85780601f106107bd576101008083540402835291602001916107e8565b820191906000526020600020905b8154815290600101906020018083116107cb57829003601f168201915b505050505081565b60006002600754036108445760405162461bcd60e51b815260206004820152601f60248201527f5265656e7472616e637947756172643a207265656e7472616e742063616c6c006044820152606401610406565b6002600755600954339061085760085490565b111561089e5760405162461bcd60e51b8152602060048201526016602482015275139bc81b5bdc99481d1bdad95b9cc81d1bc81b5a5b9d60521b6044820152606401610406565b600a546040516370a0823160e01b81523360048201526001916001600160a01b0316906370a0823190602401602060405180830381865afa1580156108e7573d6000803e3d6000fd5b505050506040513d601f19601f8201168201806040525081019061090b919061171d565b10156109595760405162461bcd60e51b815260206004820152601d60248201527f4e6f7420656e6f756768204d617869436f696e20696e2077616c6c65740000006044820152606401610406565b600061096460085490565b90506109708282610dfa565b6109828161097d83610f3c565b610fb7565b610990600880546001019055565b915050600160075590565b6000818152600260205260409020546001600160a01b03166109fa5760405162461bcd60e51b8152602060048201526018602482015277115490cdcc8c4e881a5b9d985b1a59081d1bdad95b88125160421b6044820152606401610406565b50565b600081815260046020526040902080546001600160a01b0319166001600160a01b0384169081179091558190610a32826104f8565b6001600160a01b03167f8c5be1e5ebec7d5bd14f71427d1e84f3dd0314c0f7b2291e5b200ac8c7c3b92560405160405180910390a45050565b600080610a77836104f8565b9050806001600160a01b0316846001600160a01b03161480610abe57506001600160a01b0380821660009081526005602090815260408083209388168352929052205460ff165b8061073c5750836001600160a01b0316610ad78461036b565b6001600160a01b031614949350505050565b826001600160a01b0316610afc826104f8565b6001600160a01b031614610b605760405162461bcd60e51b815260206004820152602560248201527f4552433732313a207472616e736665722066726f6d20696e636f72726563742060448201526437bbb732b960d91b6064820152608401610406565b6001600160a01b038216610bc25760405162461bcd60e51b8152602060048201526024808201527f4552433732313a207472616e7366657220746f20746865207a65726f206164646044820152637265737360e01b6064820152608401610406565b610bcd6000826109fd565b6001600160a01b0383166000908152600360205260408120805460019290610bf690849061174c565b90915550506001600160a01b0382166000908152600360205260408120805460019290610c24908490611763565b909155505060008181526002602052604080822080546001600160a01b0319166001600160a01b0386811691821790925591518493918716917fddf252ad1be2c89b69c2b068fc378daa952ba7f163c4a11628f55a4df523b3ef91a4505050565b816001600160a01b0316836001600160a01b031603610ce65760405162461bcd60e51b815260206004820152601960248201527f4552433732313a20617070726f766520746f2063616c6c6572000000000000006044820152606401610406565b6001600160a01b03838116600081815260056020908152604080832094871680845294825291829020805460ff191686151590811790915591519182527f17307eab39ab6107e8899845ad3d59bd9653f200f220920489ca2b5937696c31910160405180910390a3505050565b610d5e848484610ae9565b610d6a8484848461104a565b61062e5760405162461bcd60e51b81526004016104069061177b565b6060610d918261099b565b6000610da860408051602081019091526000815290565b90506000815111610dc85760405180602001604052806000815250610df3565b80610dd28461114b565b604051602001610de39291906116ee565b6040516020818303038152906040525b9392505050565b6001600160a01b038216610e505760405162461bcd60e51b815260206004820181905260248201527f4552433732313a206d696e7420746f20746865207a65726f20616464726573736044820152606401610406565b6000818152600260205260409020546001600160a01b031615610eb55760405162461bcd60e51b815260206004820152601c60248201527f4552433732313a20746f6b656e20616c7265616479206d696e746564000000006044820152606401610406565b6001600160a01b0382166000908152600360205260408120805460019290610ede908490611763565b909155505060008181526002602052604080822080546001600160a01b0319166001600160a01b03861690811790915590518392907fddf252ad1be2c89b69c2b068fc378daa952ba7f163c4a11628f55a4df523b3ef908290a45050565b6060600060098381548110610f5357610f536117cd565b90600052602060002001604051602001610f6d91906117e3565b60405160208183030381529060405290506000610f898261124c565b9050600081604051602001610f9e91906118cc565b60408051601f1981840301815291905295945050505050565b6000828152600260205260409020546001600160a01b03166110325760405162461bcd60e51b815260206004820152602e60248201527f45524337323155524953746f726167653a2055524920736574206f66206e6f6e60448201526d32bc34b9ba32b73a103a37b5b2b760911b6064820152608401610406565b60008281526006602052604090206104a7828261195f565b60006001600160a01b0384163b1561114057604051630a85bd0160e11b81526001600160a01b0385169063150b7a029061108e903390899088908890600401611a1f565b6020604051808303816000875af19250505080156110c9575060408051601f3d908101601f191682019092526110c691810190611a5c565b60015b611126573d8080156110f7576040519150601f19603f3d011682016040523d82523d6000602084013e6110fc565b606091505b50805160000361111e5760405162461bcd60e51b81526004016104069061177b565b805181602001fd5b6001600160e01b031916630a85bd0160e11b14905061073c565b506001949350505050565b6060816000036111725750506040805180820190915260018152600360fc1b602082015290565b8160005b811561119c578061118681611a79565b91506111959050600a83611aa8565b9150611176565b60008167ffffffffffffffff8111156111b7576111b7611541565b6040519080825280601f01601f1916602001820160405280156111e1576020820181803683370190505b5090505b841561073c576111f660018361174c565b9150611203600a86611abc565b61120e906030611763565b60f81b818381518110611223576112236117cd565b60200101906001600160f81b031916908160001a905350611245600a86611aa8565b94506111e5565b6060815160000361126b57505060408051602081019091526000815290565b6000604051806060016040528060408152602001611af0604091399050600060038451600261129a9190611763565b6112a49190611aa8565b6112af906004611ad0565b905060006112be826020611763565b67ffffffffffffffff8111156112d6576112d6611541565b6040519080825280601f01601f191660200182016040528015611300576020820181803683370190505b509050818152600183018586518101602084015b8183101561136c576003830192508251603f8160121c168501518253600182019150603f81600c1c168501518253600182019150603f8160061c168501518253600182019150603f8116850151825350600101611314565b6003895106600181146113865760028114611397576113a3565b613d3d60f01b6001198301526113a3565b603d60f81b6000198301525b509398975050505050505050565b6001600160e01b0319811681146109fa57600080fd5b6000602082840312156113d957600080fd5b8135610df3816113b1565b60005b838110156113ff5781810151838201526020016113e7565b8381111561062e5750506000910152565b600081518084526114288160208601602086016113e4565b601f01601f19169290920160200192915050565b602081526000610df36020830184611410565b60006020828403121561146157600080fd5b5035919050565b80356001600160a01b038116811461147f57600080fd5b919050565b6000806040838503121561149757600080fd5b6114a083611468565b946020939093013593505050565b6000806000606084860312156114c357600080fd5b6114cc84611468565b92506114da60208501611468565b9150604084013590509250925092565b6000602082840312156114fc57600080fd5b610df382611468565b6000806040838503121561151857600080fd5b61152183611468565b91506020830135801515811461153657600080fd5b809150509250929050565b634e487b7160e01b600052604160045260246000fd5b6000806000806080858703121561156d57600080fd5b61157685611468565b935061158460208601611468565b925060408501359150606085013567ffffffffffffffff808211156115a857600080fd5b818701915087601f8301126115bc57600080fd5b8135818111156115ce576115ce611541565b604051601f8201601f19908116603f011681019083821181831017156115f6576115f6611541565b816040528281528a602084870101111561160f57600080fd5b82602086016020830137600060208483010152809550505050505092959194509250565b6000806040838503121561164657600080fd5b61164f83611468565b915061165d60208401611468565b90509250929050565b600181811c9082168061167a57607f821691505b60208210810361169a57634e487b7160e01b600052602260045260246000fd5b50919050565b6020808252602e908201527f4552433732313a2063616c6c6572206973206e6f7420746f6b656e206f776e6560408201526d1c881b9bdc88185c1c1c9bdd995960921b606082015260800190565b600083516117008184602088016113e4565b8351908301906117148183602088016113e4565b01949350505050565b60006020828403121561172f57600080fd5b5051919050565b634e487b7160e01b600052601160045260246000fd5b60008282101561175e5761175e611736565b500390565b6000821982111561177657611776611736565b500190565b60208082526032908201527f4552433732313a207472616e7366657220746f206e6f6e20455243373231526560408201527131b2b4bb32b91034b6b83632b6b2b73a32b960711b606082015260800190565b634e487b7160e01b600052603260045260246000fd5b607b60f81b8152600060017f226465736372697074696f6e223a20224d617869436f696e204e465473222c0081840152602075089a5b5859d9488e880893585e08115b18995c9d088b60521b81850152691134b6b0b3b2911d101160b11b603685015260406000865461185581611666565b818616801561186b5760018114611884576118b4565b60ff1983168986015281151582028901850193506118b4565b896000528560002060005b838110156118aa5781548b820188015290880190870161188f565b505084828a010193505b505061227d60f01b8252506002019695505050505050565b7f646174613a6170706c69636174696f6e2f6a736f6e3b6261736536342c00000081526000825161190481601d8501602087016113e4565b91909101601d0192915050565b601f8211156104a757600081815260208120601f850160051c810160208610156119385750805b601f850160051c820191505b8181101561195757828155600101611944565b505050505050565b815167ffffffffffffffff81111561197957611979611541565b61198d816119878454611666565b84611911565b602080601f8311600181146119c257600084156119aa5750858301515b600019600386901b1c1916600185901b178555611957565b600085815260208120601f198616915b828110156119f1578886015182559484019460019091019084016119d2565b5085821015611a0f5787850151600019600388901b60f8161c191681555b5050505050600190811b01905550565b6001600160a01b0385811682528416602082015260408101839052608060608201819052600090611a5290830184611410565b9695505050505050565b600060208284031215611a6e57600080fd5b8151610df3816113b1565b600060018201611a8b57611a8b611736565b5060010190565b634e487b7160e01b600052601260045260246000fd5b600082611ab757611ab7611a92565b500490565b600082611acb57611acb611a92565b500690565b6000816000190483118215151615611aea57611aea611736565b50029056fe4142434445464748494a4b4c4d4e4f505152535455565758595a6162636465666768696a6b6c6d6e6f707172737475767778797a303132333435363738392b2fa26469706673582212204e5ab0e212d4e8e2db25acaaf52fcdd9b10124862707a089a46b5f8aa6c3e37764736f6c634300080f003368747470733a2f2f697066732e696f2f697066732f516d5438696458374a59626a3871566138526176566e545270616d73744a705679423133787263754e565653646768747470733a2f2f697066732e696f2f697066732f516d64324d58593558434176637478573741676a754a516d4247596b3142666d564c566151747059767a376e6d5068747470733a2f2f697066732e696f2f697066732f516d554776707364574d444b797739333645433355725079754b6a634e78416f7467726b4b56487a666a4345336368747470733a2f2f697066732e696f2f697066732f516d5879374459523871454a5362596e6b32786b777750655a766d47554c4d735870696b78714e4d4b4c534b506d68747470733a2f2f697066732e696f2f697066732f516d51576545534c6e59337173757952696b7a59786b4e42763252637950335434334b447056377a71717972754c68747470733a2f2f697066732e696f2f697066732f516d535759475941357a424b3175673736624344764b42714c506361747073557a616f38356d6f527279436d614868747470733a2f2f697066732e696f2f697066732f516d5054733531793134706f647864736568724d7a6d795176665770475454756d51415a716f4637677a7674614e68747470733a2f2f697066732e696f2f697066732f516d65336974684c4a465364525775464153624736593838787a31614c743767426a50527469574d484d4e6e3156",
  "linkReferences": {},
  "deployedLinkReferences": {}
}